{
  "abi": [
    {
      "inputs": [],
      "stateMutability": "nonpayable",
      "type": "constructor"
    },
    {
      "anonymous": false,
      "inputs": [
        {
          "indexed": true,
          "internalType": "address",
          "name": "owner",
          "type": "address"
        },
        {
          "indexed": true,
          "internalType": "address",
          "name": "approved",
          "type": "address"
        },
        {
          "indexed": true,
          "internalType": "uint256",
          "name": "tokenId",
          "type": "uint256"
        }
      ],
      "name": "Approval",
      "type": "event"
    },
    {
      "anonymous": false,
      "inputs": [
        {
          "indexed": true,
          "internalType": "address",
          "name": "owner",
          "type": "address"
        },
        {
          "indexed": true,
          "internalType": "address",
          "name": "operator",
          "type": "address"
        },
        {
          "indexed": false,
          "internalType": "bool",
          "name": "approved",
          "type": "bool"
        }
      ],
      "name": "ApprovalForAll",
      "type": "event"
    },
    {
      "anonymous": false,
      "inputs": [
        {
          "indexed": true,
          "internalType": "address",
          "name": "previousOwner",
          "type": "address"
        },
        {
          "indexed": true,
          "internalType": "address",
          "name": "newOwner",
          "type": "address"
        }
      ],
      "name": "OwnershipTransferred",
      "type": "event"
    },
    {
      "anonymous": false,
      "inputs": [
        {
          "indexed": true,
          "internalType": "address",
          "name": "from",
          "type": "address"
        },
        {
          "indexed": true,
          "internalType": "address",
          "name": "to",
          "type": "address"
        },
        {
          "indexed": true,
          "internalType": "uint256",
          "name": "tokenId",
          "type": "uint256"
        }
      ],
      "name": "Transfer",
      "type": "event"
    },
    {
      "anonymous": false,
      "inputs": [
        {
          "indexed": false,
          "internalType": "address",
          "name": "_to",
          "type": "address"
        },
        {
          "indexed": false,
          "internalType": "uint256",
          "name": "_value",
          "type": "uint256"
        }
      ],
      "name": "Withdraw",
      "type": "event"
    },
    {
      "inputs": [],
      "name": "COST",
      "outputs": [
        {
          "internalType": "uint256",
          "name": "",
          "type": "uint256"
        }
      ],
      "stateMutability": "view",
      "type": "function"
    },
    {
      "inputs": [],
      "name": "MAX_SUPPLY",
      "outputs": [
        {
          "internalType": "uint256",
          "name": "",
          "type": "uint256"
        }
      ],
      "stateMutability": "view",
      "type": "function"
    },
    {
      "inputs": [
        {
          "internalType": "address",
          "name": "to",
          "type": "address"
        },
        {
          "internalType": "uint256",
          "name": "tokenId",
          "type": "uint256"
        }
      ],
      "name": "approve",
      "outputs": [],
      "stateMutability": "nonpayable",
      "type": "function"
    },
    {
      "inputs": [
        {
          "internalType": "address",
          "name": "owner",
          "type": "address"
        }
      ],
      "name": "balanceOf",
      "outputs": [
        {
          "internalType": "uint256",
          "name": "",
          "type": "uint256"
        }
      ],
      "stateMutability": "view",
      "type": "function"
    },
    {
      "inputs": [
        {
          "internalType": "uint256",
          "name": "tokenId",
          "type": "uint256"
        }
      ],
      "name": "getApproved",
      "outputs": [
        {
          "internalType": "address",
          "name": "",
          "type": "address"
        }
      ],
      "stateMutability": "view",
      "type": "function"
    },
    {
      "inputs": [
        {
          "internalType": "address",
          "name": "owner",
          "type": "address"
        },
        {
          "internalType": "address",
          "name": "operator",
          "type": "address"
        }
      ],
      "name": "isApprovedForAll",
      "outputs": [
        {
          "internalType": "bool",
          "name": "",
          "type": "bool"
        }
      ],
      "stateMutability": "view",
      "type": "function"
    },
    {
      "inputs": [],
      "name": "mint",
      "outputs": [],
      "stateMutability": "payable",
      "type": "function"
    },
    {
      "inputs": [],
      "name": "name",
      "outputs": [
        {
          "internalType": "string",
          "name": "",
          "type": "string"
        }
      ],
      "stateMutability": "view",
      "type": "function"
    },
    {
      "inputs": [],
      "name": "owner",
      "outputs": [
        {
          "internalType": "address",
          "name": "",
          "type": "address"
        }
      ],
      "stateMutability": "view",
      "type": "function"
    },
    {
      "inputs": [
        {
          "internalType": "uint256",
          "name": "tokenId",
          "type": "uint256"
        }
      ],
      "name": "ownerOf",
      "outputs": [
        {
          "internalType": "address",
          "name": "",
          "type": "address"
        }
      ],
      "stateMutability": "view",
      "type": "function"
    },
    {
      "inputs": [],
      "name": "renounceOwnership",
      "outputs": [],
      "stateMutability": "nonpayable",
      "type": "function"
    },
    {
      "inputs": [
        {
          "internalType": "address",
          "name": "from",
          "type": "address"
        },
        {
          "internalType": "address",
          "name": "to",
          "type": "address"
        },
        {
          "internalType": "uint256",
          "name": "tokenId",
          "type": "uint256"
        }
      ],
      "name": "safeTransferFrom",
      "outputs": [],
      "stateMutability": "nonpayable",
      "type": "function"
    },
    {
      "inputs": [
        {
          "internalType": "address",
          "name": "from",
          "type": "address"
        },
        {
          "internalType": "address",
          "name": "to",
          "type": "address"
        },
        {
          "internalType": "uint256",
          "name": "tokenId",
          "type": "uint256"
        },
        {
          "internalType": "bytes",
          "name": "data",
          "type": "bytes"
        }
      ],
      "name": "safeTransferFrom",
      "outputs": [],
      "stateMutability": "nonpayable",
      "type": "function"
    },
    {
      "inputs": [
        {
          "internalType": "address",
          "name": "operator",
          "type": "address"
        },
        {
          "internalType": "bool",
          "name": "approved",
          "type": "bool"
        }
      ],
      "name": "setApprovalForAll",
      "outputs": [],
      "stateMutability": "nonpayable",
      "type": "function"
    },
    {
      "inputs": [
        {
          "internalType": "bytes4",
          "name": "interfaceId",
          "type": "bytes4"
        }
      ],
      "name": "supportsInterface",
      "outputs": [
        {
          "internalType": "bool",
          "name": "",
          "type": "bool"
        }
      ],
      "stateMutability": "view",
      "type": "function"
    },
    {
      "inputs": [],
      "name": "symbol",
      "outputs": [
        {
          "internalType": "string",
          "name": "",
          "type": "string"
        }
      ],
      "stateMutability": "view",
      "type": "function"
    },
    {
      "inputs": [
        {
          "internalType": "uint256",
          "name": "tokenId",
          "type": "uint256"
        }
      ],
      "name": "tokenURI",
      "outputs": [
        {
          "internalType": "string",
          "name": "",
          "type": "string"
        }
      ],
      "stateMutability": "view",
      "type": "function"
    },
    {
      "inputs": [],
      "name": "totalSupply",
      "outputs": [
        {
          "internalType": "uint256",
          "name": "",
          "type": "uint256"
        }
      ],
      "stateMutability": "view",
      "type": "function"
    },
    {
      "inputs": [
        {
          "internalType": "address",
          "name": "from",
          "type": "address"
        },
        {
          "internalType": "address",
          "name": "to",
          "type": "address"
        },
        {
          "internalType": "uint256",
          "name": "tokenId",
          "type": "uint256"
        }
      ],
      "name": "transferFrom",
      "outputs": [],
      "stateMutability": "nonpayable",
      "type": "function"
    },
    {
      "inputs": [
        {
          "internalType": "address",
          "name": "newOwner",
          "type": "address"
        }
      ],
      "name": "transferOwnership",
      "outputs": [],
      "stateMutability": "nonpayable",
      "type": "function"
    }
  ],
  "bytecode": {
    "object": "0x60806040523480156200001157600080fd5b50604051806040016040528060048152602001634275677360e01b81525060405180604001604052806002815260200161212160f11b81525081600090816200005b919062000188565b5060016200006a828262000188565b50505062000087620000816200008d60201b60201c565b62000091565b62000254565b3390565b600780546001600160a01b038381166001600160a01b0319831681179093556040519116919082907f8be0079c531659141344cd1fd0a4f28419497f9722a3daafe3b4186f6b6457e090600090a35050565b634e487b7160e01b600052604160045260246000fd5b600181811c908216806200010e57607f821691505b6020821081036200012f57634e487b7160e01b600052602260045260246000fd5b50919050565b601f8211156200018357600081815260208120601f850160051c810160208610156200015e5750805b601f850160051c820191505b818110156200017f578281556001016200016a565b5050505b505050565b81516001600160401b03811115620001a457620001a4620000e3565b620001bc81620001b58454620000f9565b8462000135565b602080601f831160018114620001f45760008415620001db5750858301515b600019600386901b1c1916600185901b1785556200017f565b600085815260208120601f198616915b82811015620002255788860151825594840194600190910190840162000204565b5085821015620002445787850151600019600388901b60f8161c191681555b5050505050600190811b01905550565b61193280620002646000396000f3fe60806040526004361061011f5760003560e01c806370a08231116100a0578063b88d4fde11610064578063b88d4fde146102fd578063bf8fbbd21461031d578063c87b56dd14610332578063e985e9c514610352578063f2fde38b1461039b57600080fd5b806370a0823114610275578063715018a6146102955780638da5cb5b146102aa57806395d89b41146102c8578063a22cb465146102dd57600080fd5b806318160ddd116100e757806318160ddd146101dd57806323b872dd1461020057806332cb6b0c1461022057806342842e0e146102355780636352211e1461025557600080fd5b806301ffc9a71461012457806306fdde0314610159578063081812fc1461017b578063095ea7b3146101b35780631249c58b146101d5575b600080fd5b34801561013057600080fd5b5061014461013f36600461136f565b6103bb565b60405190151581526020015b60405180910390f35b34801561016557600080fd5b5061016e61040d565b60405161015091906113dc565b34801561018757600080fd5b5061019b6101963660046113ef565b61049f565b6040516001600160a01b039091168152602001610150565b3480156101bf57600080fd5b506101d36101ce366004611424565b6104c6565b005b6101d36105e0565b3480156101e957600080fd5b506101f261067f565b604051908152602001610150565b34801561020c57600080fd5b506101d361021b36600461144e565b61068f565b34801561022c57600080fd5b506101f2601c81565b34801561024157600080fd5b506101d361025036600461144e565b6106c0565b34801561026157600080fd5b5061019b6102703660046113ef565b6106db565b34801561028157600080fd5b506101f261029036600461148a565b61073b565b3480156102a157600080fd5b506101d36107c1565b3480156102b657600080fd5b506007546001600160a01b031661019b565b3480156102d457600080fd5b5061016e6107d3565b3480156102e957600080fd5b506101d36102f83660046114a5565b6107e2565b34801561030957600080fd5b506101d36103183660046114f7565b6107f1565b34801561032957600080fd5b506101f2600081565b34801561033e57600080fd5b5061016e61034d3660046113ef565b610829565b34801561035e57600080fd5b5061014461036d3660046115d3565b6001600160a01b03918216600090815260056020908152604080832093909416825291909152205460ff1690565b3480156103a757600080fd5b506101d36103b636600461148a565b610939565b60006001600160e01b031982166380ac58cd60e01b14806103ec57506001600160e01b03198216635b5e139f60e01b145b8061040757506301ffc9a760e01b6001600160e01b03198316145b92915050565b60606000805461041c90611606565b80601f016020809104026020016040519081016040528092919081815260200182805461044890611606565b80156104955780601f1061046a57610100808354040283529160200191610495565b820191906000526020600020905b81548152906001019060200180831161047857829003601f168201915b5050505050905090565b60006104aa826109b2565b506000908152600460205260409020546001600160a01b031690565b60006104d1826106db565b9050806001600160a01b0316836001600160a01b0316036105435760405162461bcd60e51b815260206004820152602160248201527f4552433732313a20617070726f76616c20746f2063757272656e74206f776e656044820152603960f91b60648201526084015b60405180910390fd5b336001600160a01b038216148061055f575061055f813361036d565b6105d15760405162461bcd60e51b815260206004820152603d60248201527f4552433732313a20617070726f76652063616c6c6572206973206e6f7420746f60448201527f6b656e206f776e6572206f7220617070726f76656420666f7220616c6c000000606482015260840161053a565b6105db8383610a11565b505050565b600854601c10156106335760405162461bcd60e51b815260206004820152601860248201527f596f752063616e206e6f74206d696e7420616e796d6f72650000000000000000604482015260640161053a565b610641600880546001019055565b6106533361064e60085490565b610a7f565b61067d61065f60085490565b6040518060800160405280604181526020016118bc60419139610a99565b565b600061068a60085490565b905090565b6106993382610b2c565b6106b55760405162461bcd60e51b815260040161053a90611640565b6105db838383610baa565b6105db838383604051806020016040528060008152506107f1565b6000818152600260205260408120546001600160a01b0316806104075760405162461bcd60e51b8152602060048201526018602482015277115490cdcc8c4e881a5b9d985b1a59081d1bdad95b88125160421b604482015260640161053a565b60006001600160a01b0382166107a55760405162461bcd60e51b815260206004820152602960248201527f4552433732313a2061646472657373207a65726f206973206e6f7420612076616044820152683634b21037bbb732b960b91b606482015260840161053a565b506001600160a01b031660009081526003602052604090205490565b6107c9610d0e565b61067d6000610d68565b60606001805461041c90611606565b6107ed338383610dba565b5050565b6107fb3383610b2c565b6108175760405162461bcd60e51b815260040161053a90611640565b61082384848484610e88565b50505050565b6060610834826109b2565b6000828152600660205260408120805461084d90611606565b80601f016020809104026020016040519081016040528092919081815260200182805461087990611606565b80156108c65780601f1061089b576101008083540402835291602001916108c6565b820191906000526020600020905b8154815290600101906020018083116108a957829003601f168201915b5050505050905060006108e460408051602081019091526000815290565b905080516000036108f6575092915050565b81511561092857808260405160200161091092919061168d565b60405160208183030381529060405292505050919050565b61093184610ebb565b949350505050565b610941610d0e565b6001600160a01b0381166109a65760405162461bcd60e51b815260206004820152602660248201527f4f776e61626c653a206e6577206f776e657220697320746865207a65726f206160448201526564647265737360d01b606482015260840161053a565b6109af81610d68565b50565b6000818152600260205260409020546001600160a01b03166109af5760405162461bcd60e51b8152602060048201526018602482015277115490cdcc8c4e881a5b9d985b1a59081d1bdad95b88125160421b604482015260640161053a565b600081815260046020526040902080546001600160a01b0319166001600160a01b0384169081179091558190610a46826106db565b6001600160a01b03167f8c5be1e5ebec7d5bd14f71427d1e84f3dd0314c0f7b2291e5b200ac8c7c3b92560405160405180910390a45050565b6107ed828260405180602001604052806000815250610f2f565b6000828152600260205260409020546001600160a01b0316610b145760405162461bcd60e51b815260206004820152602e60248201527f45524337323155524953746f726167653a2055524920736574206f66206e6f6e60448201526d32bc34b9ba32b73a103a37b5b2b760911b606482015260840161053a565b60008281526006602052604090206105db828261170a565b600080610b38836106db565b9050806001600160a01b0316846001600160a01b03161480610b7f57506001600160a01b0380821660009081526005602090815260408083209388168352929052205460ff165b806109315750836001600160a01b0316610b988461049f565b6001600160a01b031614949350505050565b826001600160a01b0316610bbd826106db565b6001600160a01b031614610be35760405162461bcd60e51b815260040161053a906117ca565b6001600160a01b038216610c455760405162461bcd60e51b8152602060048201526024808201527f4552433732313a207472616e7366657220746f20746865207a65726f206164646044820152637265737360e01b606482015260840161053a565b826001600160a01b0316610c58826106db565b6001600160a01b031614610c7e5760405162461bcd60e51b815260040161053a906117ca565b600081815260046020908152604080832080546001600160a01b03199081169091556001600160a01b0387811680865260038552838620805460001901905590871680865283862080546001019055868652600290945282852080549092168417909155905184937fddf252ad1be2c89b69c2b068fc378daa952ba7f163c4a11628f55a4df523b3ef91a4505050565b6007546001600160a01b0316331461067d5760405162461bcd60e51b815260206004820181905260248201527f4f776e61626c653a2063616c6c6572206973206e6f7420746865206f776e6572604482015260640161053a565b600780546001600160a01b038381166001600160a01b0319831681179093556040519116919082907f8be0079c531659141344cd1fd0a4f28419497f9722a3daafe3b4186f6b6457e090600090a35050565b816001600160a01b0316836001600160a01b031603610e1b5760405162461bcd60e51b815260206004820152601960248201527f4552433732313a20617070726f766520746f2063616c6c657200000000000000604482015260640161053a565b6001600160a01b03838116600081815260056020908152604080832094871680845294825291829020805460ff191686151590811790915591519182527f17307eab39ab6107e8899845ad3d59bd9653f200f220920489ca2b5937696c31910160405180910390a3505050565b610e93848484610baa565b610e9f84848484610f62565b6108235760405162461bcd60e51b815260040161053a9061180f565b6060610ec6826109b2565b6000610edd60408051602081019091526000815290565b90506000815111610efd5760405180602001604052806000815250610f28565b80610f0784611063565b604051602001610f1892919061168d565b6040516020818303038152906040525b9392505050565b610f3983836110f6565b610f466000848484610f62565b6105db5760405162461bcd60e51b815260040161053a9061180f565b60006001600160a01b0384163b1561105857604051630a85bd0160e11b81526001600160a01b0385169063150b7a0290610fa6903390899088908890600401611861565b6020604051808303816000875af1925050508015610fe1575060408051601f3d908101601f19168201909252610fde9181019061189e565b60015b61103e573d80801561100f576040519150601f19603f3d011682016040523d82523d6000602084013e611014565b606091505b5080516000036110365760405162461bcd60e51b815260040161053a9061180f565b805181602001fd5b6001600160e01b031916630a85bd0160e11b149050610931565b506001949350505050565b6060600061107083611281565b600101905060008167ffffffffffffffff811115611090576110906114e1565b6040519080825280601f01601f1916602001820160405280156110ba576020820181803683370190505b5090508181016020015b600019016f181899199a1a9b1b9c1cb0b131b232b360811b600a86061a8153600a85049450846110c457509392505050565b6001600160a01b03821661114c5760405162461bcd60e51b815260206004820181905260248201527f4552433732313a206d696e7420746f20746865207a65726f2061646472657373604482015260640161053a565b6000818152600260205260409020546001600160a01b0316156111b15760405162461bcd60e51b815260206004820152601c60248201527f4552433732313a20746f6b656e20616c7265616479206d696e74656400000000604482015260640161053a565b6000818152600260205260409020546001600160a01b0316156112165760405162461bcd60e51b815260206004820152601c60248201527f4552433732313a20746f6b656e20616c7265616479206d696e74656400000000604482015260640161053a565b6001600160a01b038216600081815260036020908152604080832080546001019055848352600290915280822080546001600160a01b0319168417905551839291907fddf252ad1be2c89b69c2b068fc378daa952ba7f163c4a11628f55a4df523b3ef908290a45050565b60008072184f03e93ff9f4daa797ed6e38ed64bf6a1f0160401b83106112c05772184f03e93ff9f4daa797ed6e38ed64bf6a1f0160401b830492506040015b6d04ee2d6d415b85acef810000000083106112ec576d04ee2d6d415b85acef8100000000830492506020015b662386f26fc10000831061130a57662386f26fc10000830492506010015b6305f5e1008310611322576305f5e100830492506008015b612710831061133657612710830492506004015b60648310611348576064830492506002015b600a83106104075760010192915050565b6001600160e01b0319811681146109af57600080fd5b60006020828403121561138157600080fd5b8135610f2881611359565b60005b838110156113a757818101518382015260200161138f565b50506000910152565b600081518084526113c881602086016020860161138c565b601f01601f19169290920160200192915050565b602081526000610f2860208301846113b0565b60006020828403121561140157600080fd5b5035919050565b80356001600160a01b038116811461141f57600080fd5b919050565b6000806040838503121561143757600080fd5b61144083611408565b946020939093013593505050565b60008060006060848603121561146357600080fd5b61146c84611408565b925061147a60208501611408565b9150604084013590509250925092565b60006020828403121561149c57600080fd5b610f2882611408565b600080604083850312156114b857600080fd5b6114c183611408565b9150602083013580151581146114d657600080fd5b809150509250929050565b634e487b7160e01b600052604160045260246000fd5b6000806000806080858703121561150d57600080fd5b61151685611408565b935061152460208601611408565b925060408501359150606085013567ffffffffffffffff8082111561154857600080fd5b818701915087601f83011261155c57600080fd5b81358181111561156e5761156e6114e1565b604051601f8201601f19908116603f01168101908382118183101715611596576115966114e1565b816040528281528a60208487010111156115af57600080fd5b82602086016020830137600060208483010152809550505050505092959194509250565b600080604083850312156115e657600080fd5b6115ef83611408565b91506115fd60208401611408565b90509250929050565b600181811c9082168061161a57607f821691505b60208210810361163a57634e487b7160e01b600052602260045260246000fd5b50919050565b6020808252602d908201527f4552433732313a2063616c6c6572206973206e6f7420746f6b656e206f776e6560408201526c1c881bdc88185c1c1c9bdd9959609a1b606082015260800190565b6000835161169f81846020880161138c565b8351908301906116b381836020880161138c565b01949350505050565b601f8211156105db57600081815260208120601f850160051c810160208610156116e35750805b601f850160051c820191505b81811015611702578281556001016116ef565b505050505050565b815167ffffffffffffffff811115611724576117246114e1565b611738816117328454611606565b846116bc565b602080601f83116001811461176d57600084156117555750858301515b600019600386901b1c1916600185901b178555611702565b600085815260208120601f198616915b8281101561179c5788860151825594840194600190910190840161177d565b50858210156117ba5787850151600019600388901b60f8161c191681555b5050505050600190811b01905550565b60208082526025908201527f4552433732313a207472616e736665722066726f6d20696e636f72726563742060408201526437bbb732b960d91b606082015260800190565b60208082526032908201527f4552433732313a207472616e7366657220746f206e6f6e20455243373231526560408201527131b2b4bb32b91034b6b83632b6b2b73a32b960711b606082015260800190565b6001600160a01b0385811682528416602082015260408101839052608060608201819052600090611894908301846113b0565b9695505050505050565b6000602082840312156118b057600080fd5b8151610f288161135956fe697066732f62616679626569656e67796a36656c6d727477623373793472366c333368736a61627533697637346e75737a3478797335696537626774637073752fa26469706673582212206b351f34092dad81b517db59d32b16cd4f86685aa880bb94caeacea4d0f93b2f64736f6c63430008140033",
    "linkReferences": {}
  },
  "methodIdentifiers": {
    "COST()": "bf8fbbd2",
    "MAX_SUPPLY()": "32cb6b0c",
    "approve(address,uint256)": "095ea7b3",
    "balanceOf(address)": "70a08231",
    "getApproved(uint256)": "081812fc",
    "isApprovedForAll(address,address)": "e985e9c5",
    "mint()": "1249c58b",
    "name()": "06fdde03",
    "owner()": "8da5cb5b",
    "ownerOf(uint256)": "6352211e",
    "renounceOwnership()": "715018a6",
    "safeTransferFrom(address,address,uint256)": "42842e0e",
    "safeTransferFrom(address,address,uint256,bytes)": "b88d4fde",
    "setApprovalForAll(address,bool)": "a22cb465",
    "supportsInterface(bytes4)": "01ffc9a7",
    "symbol()": "95d89b41",
    "tokenURI(uint256)": "c87b56dd",
    "totalSupply()": "18160ddd",
    "transferFrom(address,address,uint256)": "23b872dd",
    "transferOwnership(address)": "f2fde38b"
  },
  "id": 30
}